:020000020000FC
:020000001AC024
:1000340079C050E15EBF5FEF5DBF50917A005F779A
:1000440050937A005091300050685F7B5093300099
:1000540050916000577B5093600057E450936400C4
:100064005FEF51B957B954B955275093800059E0FF
:100074005093810052E0509389005BE750938800CD
:1000840052E050936F00FF24F5E0E8EF2F017894DD
:1000940028982D9A2B9A0E940E1452E14AE00E944D
:1000A400231483E052E40E9452140E942C1459E752
:1000B4000E9452140E942C1450E20E9452140E9476
:1000C4002C1453E50E9452140E942C1450E70E94F1
:1000D40052140E942C1459E60E9452140E942C14AB
:1000E40052E70E9452140E942C1450E40E945214AD
:1000F4000E942C145CE60E9452140E942C1450E2BC
:100104000E9452140E942C1455E40E9452140E941E
:100114002C145EE20E9452140E94B41400000000E9
:100124000000FCCF0091840000FD089A2A9805B1D4
:100134000460302EAFB63F01F20115911F3F31F03C
:100144000000000000000000000004C0F5E0E8EF3B
:100154001591639517FD299817FF299A05912F0189
:10016400F301663019F47395662703C0000000009C
:10017400000000000000000000000000000000007B
:10018400000000000000000000000000000000006B
:10019400000000000000000000000000000000005B
:1001A40000000000000000000000000000002A9A87
:1001B40016FD1895B2B0C8B08BB09AB02C9AFAB8A4
:1001C400FBB802B9F8B8000000000000000000000D
:1001D400000000000000000000000000000000001B
:1001E40000000000000000002B98139518B9139527
:1001F40018B9139518B9139518B9139518B9139517
:1002040018B9139518B9139518B9139518B9139506
:1002140018B9139518B9139518B9139518B91395F6
:1002240018B9139518B9139518B9139518B91395E6
:1005E40018B9139518B98BB89AB8B2B8C8B835B851
:1005F400AFBE1895C000C00040004000400040005D
:1006040040004000400040004000400040004000E6
:1006140040004000400040004000400040004000D6
:1006240040004000400040004000400040004000C6
:100634004000400040004000400000000000000175
:10064400000100020002000300030004000400058E
:10065400000500060006000700070008000800095E
:100664000009000A000A000B000B000C000C000D2E
:10067400000D000E000E000F000F001000100011FE
:1006840000110012001200130013001400140015CE
:10069400001500160016001700170018001800199E
:1006A4000019001A001A001B001B001C001C001D6E
:1006B400001D001E001E001F001F0020002000213E
:1006C400002100220022002300230024002400250E
:1006D40000250026002600270027002800280029DE
:1006E4000029002A002A002B002B002C002C002DAE
:1006F400002D002E002E002F002F0030003000317E
:10070400003100320032003300330034003400354D
:10071400003500360036003700370038003800391D
:100724000039003A003A003B003B003C003C003DED
:10073400003D003E003E003F003F004000400041BD
:10074400004100420042004300430044004400458D
:10075400004500460046004700470048004800495D
:100764000049004A004A004B004B004C004C004D2D
:10077400004D004E004E004F004F005000500051FD
:1007840000510052005200530053005400540055CD
:10079400005500560056005700570058005800599D
:1007A4000059005A005A005B005B005C005C005D6D
:1007B400005D005E005E005F005F0060006000613D
:1007C400006100620062006300630064006400650D
:1007D40000650066006600670067006800680069DD
:1007E4000069006A006A006B006B006C006C006DAD
:1007F400006D006E006E006F006F0070007000717D
:10080400007100720072007300730074007400754C
:10081400007500760076007700770078007800791C
:100824000079007A007A007B007B007C007C007DEC
:10083400007D007E007E007F007F008000800081BC
:10084400008100820082008300830084008400858C
:10085400008500860086008700870088008800895C
:100864000089008A008A008B008B008C008C008D2C
:10087400008D008E008E008F008F009000900091FC
:1008840000910092009200930093009400940095CC
:10089400009500960096009700970098009800999C
:1008A4000099009A009A009B009B009C009C009D6C
:1008B400009D009E009E009F009F00A000A000A13C
:1008C40000A100A200A200A300A300A400A400A50C
:1008D40000A500A600A600A700A700A800A800A9DC
:1008E40000A900AA00AA00AB00AB00AC00AC00ADAC
:1008F40000AD00AE00AE00AF00AF00B000B000B17C
:1009040000B100B200B200B300B300B400B400B54B
:1009140000B500B600B600B700B700B800B800B91B
:1009240000B900BA00BA00BB00BB00BC00BC00BDEB
:1009340000BD00BE00BE00BF00BF00C000C000C1BB
:1009440000C100C200C200C300C300C400C400C58B
:1009540000C500C600C600C700C700C800C800C95B
:1009640000C900CA00CA00CB00CB00CC00CC00CD2B
:1009740000CD00CE00CE00CF00CF00D000D000D1FB
:1009840000D100D200D200D300D300D400D400D5CB
:1009940000D500D600D600D700D700D800D800D99B
:1009A40000D900DA00DA00DB00DB00DC00DC00DD6B
:1009B40000DD00DE00DE00DF00DF00E000E000E13B
:1009C40000E100E200E200E300E300E400E400E50B
:1009D40000E500E600E600E700E700E800E800E9DB
:1009E40000E900EA00EA00EB00EB00EC00EC00EDAB
:1009F40000ED00EE00EE00EF00EF4000400040008C
:100A04004000400040004000400040004000FF0023
:100A140000000000000000000000000040404040D2
:100A2400000040000028282800000000000000000A
:100A340028287C287C2828000000103850381414FA
:100A44003810000000440810204400000000304822
:100A540048305448340000202020000000000000EA
:100A640000040808080808080804002010101010E2
:100A740010101020000000002810102800000000B2
:100A8400000010381000000000000000000000000A
:100A9400404000000000003800000000000000009A
:100AA40000000000400000060C0C181830306000F4
:100AB40000182424342C24241800000818080808DA
:100AC40008081C0000182404040810203C00001826
:100AD400240404080424180000040C14243C040412
:100AE40004000038202038040424180000182020B2
:100AF40038242424180000380404040808101000C2
:100B04000018242418242424180000182424241C45
:100B14000404180000000000004000004000000031
:100B24000000004000004040000C183060603018A5
:100B34000C00000000003800380000000030180CE1
:100B440006060C1830000030181818300030300039
:100B5400000038444C545C403800003C42427E4221
:100B640062626200007C42427C4262627C00003C21
:100B74004240404060623C00007C42424242626229
:100B84007C00007E4040784060607E00007E4040F3
:100B9400784060606000003C4240404662623C0035
:100BA400004242427E4262626200003C1010101019
:100BB40018183C00003C08080808181830000042C7
:100BC40042447844626262000040404040406060B9
:100BD4007E0000665A5A42426262620000426272B9
:100BE4005A4E66626200003C4242424262623C00EB
:100BF400007C42427C4060606000003C42424242D1
:100C04006A643A00007C42427C4864626200003CB0
:100C140040403C0606063C00007E101010101818D8
:100C2400180000424242424262623C000042424298
:100C34004242662418000062626242425A5A6600C6
:100C44000042422418182442420000424224181050
:100C540018181800007E06060C1830607E00000C80
:100C6400080808080808080C0060303018180C0C34
:100C740006000030101010101010103000205050DA
:100C840000000000000000000000000000007E00E2
:100C940000202010000000000000000000003804C4
:100CA4003C443800000000404078444438000000D0
:100CB400000038404040380000000004043C444434
:100CC4003800000000003844784038000000001C60
:100CD400202078202000000000003844443C0438E0
:100CE400000000404078444444000000001000101C
:100CF4001010100000000010001010102000000060
:100D0400004048506050480000000020202020206F
:100D1400180000000000285444444400000000006F
:100D2400582424242400000000003844444438009B
:100D3400000000003844447840400000000038447B
:100D4400443C04040000000018202020200000007F
:100D540000003C4038047800000000202078202067
:100D64001C0000000000444444443800000000001B
:100D74004444442810000000000044444454280023
:100D840000000000442810284400000000004444EF
:100D94003C040438000000007C0810207C0000049F
:100DA400080808100808080400001010101010109B
:100DB40010000020101010081010102000002850FF
:100DC400000000000000000000000000000000001F
:100DD400000000000000000000000000000000000F
:100DE40000000000000000000000000000000000FF
:100DF40000000000000000000000000000000000EF
:100E040000000000000000000000000000000000DE
:100E140000000000000000000000000000000000CE
:100E240000000000000000000000000000000000BE
:100E340000000000000000000000000000000000AE
:100E4400000000000000000000000000000000009E
:100E5400000000000000000000000000000000008E
:100E6400000000000000000000000000000000007E
:100E7400000000000000000000000000000000006E
:100E8400000000000000000000000000000000005E
:100E9400000000000000000000000000000000004E
:100EA400000000000000000000000000000000003E
:100EB400000000000000000000000000000000002E
:100EC400000000000000000000000000000000001E
:100ED400000000000000000000000000000000000E
:100EE40000000000000000000000000000000000FE
:100EF40000000000000000000000000000000000EE
:100F040000000000000000000000000000000000DD
:100F140000000000000000000000000000000000CD
:100F2400000000434343434343000000000000002B
:100F340000000000000000000000000000000000AD
:100F4400000000000000000000000000000000009D
:100F5400000000000000000000000000000000008D
:100F6400000000000000000000000000000000007D
:100F7400000000000000000000000000000000006D
:100F8400000000000000000000000000000000005D
:100F9400000000000000000000000000000000004D
:100FA400000000000000000000000000000000003D
:100FB400000000000000000000000000000000002D
:100FC400000000000000000000434343434343008B
:100FD400000000000000000000000000000000000D
:100FE4000000000000000000004C4C4C4C4C4C0035
:100FF40000000000000000000000000000000000ED
:1010040000000000000000000000000000000000DC
:1010140000000000FFFFFFFFFFFFFFFF00000000D4
:101024000000FFFFFFFFFFFFFFFF000000000000C4
:10103400000000000000000000FFFFFFFFFF0000B1
:10104400000000000000000000000000000000009C
:10105400000000FFFFFF000000000000000000008F
:101064000000000000000000000000000000004339
:10107400434343434300000000000000000000001D
:101084000000000000000000000000000000004C10
:101094004C4C4C4C4C0000000000000000000000D0
:1010A400000000000000000000000000000000003C
:1010B40000000000000000000000FFFFFFFFFFFF32
:1010C400FFFF000000000000FFFFFFFFFFFFFFFF26
:1010D4000000000000000000000000FFFFFFFFFF11
:1010E400FFFFFFFFFFFFFF00000000000000000003
:1010F40000000000000000FFFFFFFFFFFF000000F2
:1011040000000000000000000000000000000000DB
:101114000000000000434343434343000000000039
:1011240000000000000000000000000000000000BB
:10113400000000004C4C4C4C4C4C000000000000E3
:10114400000000000000BCBC000000000000000023
:10115400000000000000000000000000000000FF8C
:10116400FFFFFFFFFFFFFFFF000000000000FFFF85
:10117400FFFFFFFFFFFF000000000000000000FF72
:10118400FFFFFFFFFFFFFFFFFFFFFFFFFFFF000069
:101194000000000000000000000000FFFFFFFFFF50
:1011A400FFFFFFFF0000000000000000000000003F
:1011B40000000000000000000000004343434343DC
:1011C40043000000000000000000000000000000D8
:1011D400000000000000000000004C4C4C4C4C4C43
:1011E400000000000000000000BCBCBCBC0000000B
:1011F40000000000000000000000000000000000EB
:101204000000000000FFFFFFFFFFFFFFFF000000E2
:101214000000000000FFFFFFFFFFFFFF00000000D1
:1012240000000000FFFFFFFFFFFFFFFFFFFFFFFFC6
:10123400FFFFFFFFFF0000000000000000000000AF
:10124400FFFFFFFFFFFFFFFFFFFFFF0000000000A5
:10125400000000000000000000000000000000008A
:1012640000434343434343000000000000000000E8
:10127400000000000000000000000000000000006A
:101284004C4C4C4C4C4C0000000000000000BCBC1A
:10129400BCBCBC0000000000000000000000000016
:1012A4000000000000000000000000FFFFFFFFFF3F
:1012B400FFFFFF0000000000000000FFFFFFFFFF32
:1012C400FFFF000000000000FFFFFFFFFFFFFFFF24
:1012D400FFFFFFFFFFFFFFFFFFFFFF000000000015
:1012E4000000000000FFFFFFFFFFFFFFFFFFFFFF05
:1012F400FFFF0000000000000000000000000000EC
:101304000000000000000043434343434300000047
:1013140000000000000000000000000000000000C9
:101324000000000000004C4C4C4C4C00000000003D
:10133400000000BCBCBCBCBCBC0000000000000041
:101344000000000000000000000000000000000099
:10135400FFFFFFFFFFFFFFFFFF0000000000000092
:1013640000FFFFFFFFFFFFFF0000000000FFFFFF83
:10137400FFFFFFFFFFFFFFFFFFFFFFFFFFFFFFFF79
:10138400FF000000000000000000FFFFFFFFFFFF60
:10139400FFFFFFFFFFFFFFFF000000000000000051
:1013A400000000000000000000000000434343432D
:1013B40043430000000000000000000000000000A3
:1013C40000000000000000000000004C4C4C4C4C9D
:1013D4004C0000000000000000BCBCBCBCBC000011
:1013E40000000000000000000000000000000000F9
:1013F400000000000000FFFFFFFFFFFFFFFF0000F1
:1014040000000000000000FFFFFFFFFFFFFF0000DF
:10141400000000FFFFFFFFFFFFFFFFFFFF000000D2
:10142400FFFFFFFFFFFFFF0000000000000000FFC0
:10143400FFFFFFFFFFFFFFFFFFFFFFFFFFFFFF00B7
:1014440000000000000000000000000000434343CF
:1014540000004343434343430000000000000000F6
:1014640000008F8F8F8F8F8F00000000000000001E
:10147400004C4C4C4C4C4C00000000000000BCBC28
:10148400BCBCBCBC00000000000000000000707088
:10149400707070700000000000000000FFFFFFFF8C
:1014A400FFFFFFFF000000000000000000FFFFFF3F
:1014B400FFFFFFFF00000000FFFFFFFFFFFFFFFF34
:1014C400FF000000000000FFFFFFFFFFFF0000001F
:1014D40000000000FFFFFFFFFFFFFFFFFFFFFFFF14
:1014E400FFFFFFFFFF0000000000000000000000FD
:1014F40000434343434343004343434343430000C4
:101504000000000000008F8F8F8F8F8F8F8F8F8F41
:10151400000000000000004C4C4C4C4C4C000000FF
:1015240000BCBCBCBCBCBCBCBCBCBCBCBC000000E7
:1015340000707070707070707070707000000000D7
:101544000000FFFFFFFFFFFFFF000000000000009E
:10155400000000FFFFFFFFFFFFFF000000FFFFFF91
:10156400FFFFFFFFFFFF00000000000000FFFFFF80
:10157400FFFF00000000000000FFFFFFFFFFFFFF70
:10158400FFFF0000FFFFFFFFFFFFFFFF0000000061
:1015940000000000000043434343434343434343A9
:1015A40043434343000000000000008F8F8F8F8F60
:1015B4008F8F8F8F8F8F8F0000000000004C4C4C5A
:1015C4004C4C00000000BCBCBCBCBCBCBCBCBCBC27
:1015D400BCBCBC0000007070707070707070707073
:1015E4007070700000000000FFFFFFFFFFFFFF00AE
:1015F400000000000000000000FFFFFFFFFFFFFFEE
:10160400000000FFFFFFFFFFFFFFFF0000000000DE
:10161400000000FFFFFF000000000000000000FFCA
:10162400FFFFFFFFFFFFFF00000000FFFFFFFFFFC2
:10163400FFFF000000000000000000434343434359
:1016440043434343434343434343000000000000F8
:101654008F8F8F8F8F8F8F8F8F8F8F8F8F8F0000B4
:1016640000004C4C4C4C4C4C00000000BCBCBCBCBE
:10167400BCBCBCBCBCBCBCBCBC000070707070709A
:101684007070707070707070707000000000FFFFF8
:10169400FFFFFFFFFF00000000000000000000FF4C
:1016A400FFFFFFFFFFFF0000FFFFFFFFFFFFFFFF44
:1016B4000000000000000000000000000000000026
:1016C40000000000FFFFFFFFFFFFFFFF000000001E
:1016D40000FFFFFFFFFFFFFF00000000000000000D
:1016E400434343434343000000434343434343438F
:1016F40000000000008F8F8F8F8F8F8F8F8F8F8FC1
:101704008F8F8F8F000000004C4C4C4C4C4C0000D1
:1017140000BCBCBCBCBCBCBCBCBCBCBCBCBCBC007D
:101724000070707070707070707070707070707025
:10173400000000FFFFFFFFFFFFFFFF0000000000AD
:101744000000000000FFFFFFFFFFFFFF00FFFFFF9F
:10175400FFFFFFFFFF00000000000000000000008A
:10176400000000000000000000FFFFFFFFFFFFFF7C
:10177400FF000000000000FFFFFFFFFFFFFF00006D
:1017840000000000004343434343430000000000C3
:10179400434343434343000000008F8F8F8F8F8F59
:1017A400000000008F8F8F8F8F8F000000004C4C43
:1017B4004C4C4C4C000000BC0000BCBCBCBCBCBCD1
:1017C400BC00000000000070707070000000000099
:1017D400707070707070000000FFFFFFFFFFFFFF6C
:1017E4000000000000000000000000FFFFFFFFFFFA
:1017F400FF0000FFFFFFFFFFFFFFFF0000000000EE
:10180400000000000000000000000000000000FFD5
:10181400FFFFFFFFFFFF0000000000000000FFFFCC
:10182400FFFFFFFF00000000000043434343434326
:101834000000000000004343434343000000008FC6
:101844008F8F8F8F8F0000000000008F8F8F8F8FFE
:10185400000000004C4C4C4C4C0000000000000008
:1018640000BCBCBCBCBC0000000000000070707078
:10187400000000000000007070707070700000FFC5
:10188400FFFFFFFFFFFF000000000000000000005A
:10189400FFFFFFFFFFFFFF0000FFFFFFFFFFFFFF52
:1018A4000000000000000000000000000000000034
:1018B40000000000FFFFFFFFFFFFFF00000000002B
:1018C40000000000FFFFFFFFFFFF0000000000001A
:1018D40043434343430000000000000043434343A9
:1018E40043000000008F8F8F8F8F000000000000E6
:1018F400008F8F8F8F8F000000004C4C4C4C4C009D
:10190400000000000000BCBCBCBCBCBC000000006B
:101914000000007070700000000000000070707023
:101924007070000000FFFFFFFFFFFFFF00000000DA
:10193400000000000000FFFFFFFFFFFFFF00FFFFAC
:10194400FFFFFFFFFFFF0000000000000000000099
:1019540000000000000000000000FFFFFFFFFFFF89
:10196400FF0000000000000000FFFFFFFFFFFFFF7B
:10197400FF00000000434343434300000000000015
:10198400000043434343430000008F8F8F8F8F0039
:10199400000000000000008F8F8F8F8F0000004C2C
:1019A4004C4C4C4C4C00000000000000BCBCBCBCC7
:1019B400BC00000000000000000000000000000067
:1019C4000000007070707070000000FFFFFFFFFFE8
:1019D400FFFF00000000000000000000FFFFFFFF09
:1019E400FFFFFF00FFFFFFFFFFFFFF0000000000FD
:1019F400000000000000FFFFFFFF0000000000FFE8
:101A0400FFFFFFFFFFFFFF00FFFFFFFFFFFFFFFFE1
:101A1400FFFFFFFFFFFFFF0000000043434343437A
:101A24000000000000000043434343434300000020
:101A34008F8F8F8F8F000000000000008F8F8F8F9B
:101A44008F000000004C4C4C4C4C4C00000000003B
:101A54000000BCBCBCBCBC000000000000000000D6
:101A640000000000000000007070707070700000D2
:101A740000FFFFFFFFFFFFFF000000000000000069
:101A840000FFFFFFFFFFFFFF0000FFFFFFFFFFFF5F
:101A9400FF000000000000000000FFFFFFFFFFFF49
:101AA400FF00000000FFFFFFFFFFFFFFFFFFFFFF3E
:101AB400FFFFFFFFFFFFFFFFFFFFFFFFFF0000002F
:101AC40043434343430000000000000000434343FA
:101AD40043434300008F8F8F8F8F0000000000006E
:101AE4008F8F8F8F8F8F8F000000004C4C4C4C4C8D
:101AF4004C00000000000000BCBCBCBCBC000000EA
:101B040000000000000000000000007070707070A1
:101B140070707070000000FFFFFFFFFFFFFF000008
:101B240000000000000000FFFFFFFFFFFFFF0000B8
:101B3400FFFFFFFFFFFFFF00000000000000FFFFAA
:101B4400FFFFFFFFFFFFFF000000FFFFFFFFFFFF9E
:101B5400FFFFFFFFFFFFFFFFFFFFFFFFFFFFFFFF91
:101B6400FFFFFF0000004343434343000000000025
:101B740000000043434343434300008F8F8F8F8F04
:101B84000000008F8F8F8F8F8F8F8F8F000000004A
:101B9400004C4C4C4C4C0000000000000000BCBC4D
:101BA400BCBCBC000000000000000000000070701D
:101BB40070707070707070707070000000FFFFFFC4
:101BC400FFFFFFFF0000000000000000FFFFFFFF19
:101BD400FFFFFF0000FFFFFFFFFFFFFFFF0000000C
:101BE40000000000FFFFFFFFFFFFFFFFFF000000FA
:101BF400FFFFFFFFFFFFFFFFFFFFFFFFFFFFFFFFF1
:101C0400FFFFFFFFFFFFFFFF0000000043434343CC
:101C1400430000000000000000434343434300002E
:101C2400008F8F8F8F8F8F8F8F8F8F8F8F8F8F8F4F
:101C34008F0000000000004C4C4C4C4C0000000095
:101C4400000000BCBCBCBCBCBC0000000000000028
:101C540000000070707070707070707070707070D0
:101C6400000000FFFFFFFFFFFFFFFF000000000078
:101C74000000FFFFFFFFFFFFFF0000FFFFFFFFFF6C
:101C8400FFFFFF0000000000000000FFFFFFFFFF58
:101C9400FFFFFF000000FFFFFFFFFFFFFFFFFFFF4D
:101CA400FFFFFFFFFFFFFFFFFFFFFFFFFFFF00003E
:101CB400004343434343430000000000000000434B
:101CC4004343434300008F8F8F8F8F8F8F8F8F8F6E
:101CD4008F8F8F8F8F8F000000000000004C4C4CC2
:101CE4004C4C00000000000000BCBCBCBCBC0000AC
:101CF40000000000000000707070707070707070F0
:101D0400707070707070000000FFFFFFFFFFFFFF36
:101D1400FF000000000000FFFFFFFFFFFFFFFF00C8
:101D240000FFFFFFFFFFFFFFFF00000000000000B7
:101D34000000FFFFFFFFFFFF000000FFFFFFFFFFAA
:101D4400FFFFFFFFFFFFFF000000000000FFFFFF99
:101D5400FFFFFFFF00000043434343430000000034
:101D64000000000000434343434300008F8F8F8FE4
:101D74008F8F8F8F8F8F8F8F8F8F000000000000C9
:101D840000004C4C4C4C4C4C00000000000000BCCB
:101D9400BCBCBCBC0000000000000000707070708F
:101DA400707070000000707070707070000000FF40
:101DB400FFFFFFFFFFFFFF000000000000FFFFFF29
:101DC400FFFFFFFF000000FFFFFFFFFFFFFFFF001B
:101DD4000000000000000000FFFFFFFFFFFF000005
:101DE40000FFFFFFFFFFFFFFFFFFFF0000000000F9
:101DF40000000000FFFFFFFFFFFF0000004343431C
:101E040043430000000000000000434343434343B6
:101E140000008F8F8F8F8F8F8F8F8F8F8F00000099
:101E240000000000000000004C4C4C4C4C4C0000E6
:101E34000000000000BCBCBCBCBC000000000000F2
:101E4400007070707070700000000000707070702E
:101E5400707000000000FFFFFFFFFFFFFFFF0000A6
:101E64000000FFFFFFFFFFFFFF00000000FFFFFF78
:101E7400FFFFFFFFFF000000000000000000FFFF65
:101E8400FFFFFFFF000000FFFFFFFFFFFFFFFF005A
:101E9400000000000000000000FFFFFFFFFFFFFF45
:101EA40000000043434343430000000000000000DF
:101EB40043434343434300008F8F8F8F8F8F8F8F14
:101EC4008F000000000000000000000000004C4CE7
:101ED4004C4C4C4C00000000000000BCBCBCBCBC22
:101EE40000000000000000707070707000000000BE
:101EF400000070707070700000000000FFFFFFFFB2
:101F0400FFFFFFFF000000FFFFFFFFFFFFFFFF00D9
:101F1400000000FFFFFFFFFFFFFFFFFF00000000C6
:101F2400000000FFFFFFFFFFFFFF000000FFFFFFB7
:101F3400FFFFFFFFFF00000000000000000000FFA3
:101F4400FFFFFFFFFFFF0000004343434343430001
:101F540000000000000043434343430000008F8F10
:101F64008F8F8F8F8F000000000000000000008F13
:101F7400000000004C4C4C4C4C4C00000000000095
:101F8400BCBCBCBCBCBC0000000000007070707025
:101F9400707000000000000070707070700000002D
:101FA4000000FFFFFFFFFFFFFFFFFF00FFFFFFFF3A
:101FB400FFFFFFFF0000000000FFFFFFFFFFFFFF28
:101FC400FFFFFF0000000000FFFFFFFFFFFFFFFF18
:101FD400000000FFFFFFFFFFFFFF00000000000004
:101FE4000000000000FFFFFFFFFFFFFF00000043B1
:101FF400434343434300000000000043434343433F
:10200400430000008F8F8F8F8F8F0000000000002F
:1020140000000000008F000000004C4C4C4C4C00B1
:10202400000000000000BCBCBCBCBCBC0000000044
:10203400000070707070700000000000000070708C
:102044007070700000000000FFFFFFFFFFFFFFFF44
:10205400FFFFFFFFFFFFFFFFFF0000000000000085
:10206400FFFFFFFFFFFFFFFFFFFFFFFFFFFFFFFF7C
:10207400FFFFFFFFFFFF0000FFFFFFFFFFFFFFFF6A
:1020840000000000000000000000FFFFFFFFFFFF52
:10209400FFFF0000004343434343430000000000AC
:1020A400004343434343430000008F8F8F8F8F00CF
:1020B400000000000000000000008F8F00000000FE
:1020C4004C4C4C4C4C00000000000000BCBCBCBCA0
:1020D400BCBC000000000000707070707000000054
:1020E400000000707070707070000000000000FF4D
:1020F400FFFFFFFFFFFFFFFFFFFFFFFFFFFFFF00EB
:10210400000000000000FFFFFFFFFFFFFFFFFFFFD5
:10211400FFFFFFFFFFFFFFFFFFFFFFFF0000FFFFC9
:10212400FFFFFFFFFFFF00000000000000000000B1
:10213400FFFFFFFFFFFFFF00000000434343434353
:102144004343000000004343434343434300000030
:102154008F8F8F8F8F000000000000000000008F21
:102164008F8F0000004C4C4C4C4C4C000000000085
:102174000000BCBCBCBCBCBC000000000000707013
:10218400707070000000000000707070707070005B
:102194000000000000FFFFFFFFFFFFFFFFFFFFFF46
:1021A400FFFFFFFF0000000000000000FFFFFFFF33
:1021B400FFFFFFFFFFFFFFFFFFFFFFFFFFFFFFFF2B
:1021C400FF000000FFFFFFFFFFFFFFFF0000000014
:1021D4000000000000FFFFFFFFFFFFFFFF00000003
:1021E40000434343434343434343434343434343FE
:1021F4004343430000008F8F8F8F8F8F00000000B8
:10220400000000008F8F8F000000004C4C4C4C4CA1
:102214004C00000000000000BCBCBCBCBCBC000006
:10222400000000707070707070700000000000702A
:10223400707070707000000000000000FFFFFFFF6E
:10224400FFFFFFFFFFFFFFFFFF0000000000000093
:10225400000000FFFFFFFFFFFFFFFFFFFFFFFFFF87
:10226400FFFFFFFFFFFFFF000000FFFFFFFFFFFF77
:10227400FFFF000000000000000000FFFFFFFFFF61
:10228400FFFFFF00000000434343434343434343F2
:102294004343434343434343000000008F8F8F8FE6
:1022A4008F8F8F8F000000008F8F8F8F8F00000023
:1022B400004C4C4C4C4C4C00000000000000BCBCDA
:1022C400BCBCBCBC0000000000007070707070707A
:1022D400707070707070707070700000000000009A
:1022E4000000FFFFFFFFFFFFFFFFFFFFFFFF0000F6
:1022F400000000000000000000FFFFFFFFFFFFFFE1
:10230400FFFFFFFFFFFFFFFFFFFFFFFF00000000D5
:10231400FFFFFFFFFFFFFFFF0000000000000000C1
:10232400FFFFFFFFFFFFFFFFFF000000000043432C
:1023340043434343434343434343434343430000EF
:102344000000008F8F8F8F8F8F8F8F8F8F8F8F8F46
:102354008F8F8F000000004C4C4C4C4C4C00000004
:1023640000000000BCBCBCBCBCBC00000000000001
:102374007070707070707070707070707070707059
:10238400000000000000000000FFFFFFFFFFFFFF50
:10239400FFFFFF000000000000000000000000003C
:1023A400FFFFFFFFFFFFFFFFFFFFFFFFFFFFFFFF39
:1023B400FF0000000000FFFFFFFFFFFFFFFFFF0023
:1023C4000000000000FFFFFFFFFFFFFFFFFF000012
:1023D40000000000434343434343434343434343D5
:1023E4004343434300000000008F8F8F8F8F8F8FF4
:1023F4008F8F8F8F8F8F8F8F00000000004C4C4C7D
:102404004C4C4C00000000000000BCBCBCBCBCBC7C
:10241400BC0000000000007070707070707070700C
:102424007070707070700000000000000000000008
:10243400FFFFFFFFFFFFFFFF0000000000000000A0
:102444000000000000000000FFFFFFFFFFFFFFFF90
:10245400FFFFFFFFFF00000000000000FFFFFFFF81
:10246400FFFFFFFFFF000000000000FFFFFFFFFF72
:10247400FFFFFFFF0000000000000043434343430D
:1024840043434343434343434343000000000000AA
:102494008F8F8F8F8F8F8F8F8F8F8F8F8F000000F5
:1024A4000000004C4C4C4C4C4C0000000000000060
:1024B400BCBCBCBCBCBC00000000000000007070D0
:1024C40070707070707070707070707000000000C8
:1024D40000000000000000FFFFFFFFFFFF000000FE
:1024E40000000000000000000000000000000000E8
:1024F400FFFFFFFFFFFFFFFFFF00000000000000E1
:10250400000000FFFFFFFFFFFFFFFF0000000000CF
:1025140000FFFFFFFFFFFFFFFF00000000000000BF
:102524000000004343434343434343434343430083
:10253400000000000000008F8F8F8F8F8F8F8F8F90
:102544008F00000000000000004C4C4C4C4C4C0030
:10255400000000000000BCBCBCBC00000000000087
:102564000000000000007070707070707070707007
:102574007070000000000000000000000000FFFF79
:10258400FF00000000000000000000000000000048
:102594000000000000000000000000000000000037
:1025A4000000000000000000000000000000000027
:1025B4000000000000000000000000000000000017
:1025C4000000000000000000000000000000000007
:1025D4000000000000000000000000000000008F68
:1025E4008F8F8F8F000000000000000000000000AB
:1025F400000000000000000000000000BCBC00005F
:1026040000000000000000000000000000000000C6
:1026140000000000000000000000000000000000B6
:1026240000000000000000000000000000000000A6
:102634000000000000000000000000000000000096
:102644000000000000000000000000000000000086
:102654000000000000000000000000000000000076
:102664000000000000000000000000000000000066
:102674000000000000000000000000000000000056
:102684000000000000000000000000000000000046
:102694000000000000000000000000000000000036
:1026A4000000000000000000000000000000000026
:1026B4000000000000000000000000000000000016
:1026C4000000000000000000000000000000000006
:1026D40000000000000000000000000000000000F6
:1026E40000000000000000000000000000000000E6
:1026F40000000000000000000000000000000000D6
:1027040000000000000000000000000000000000C5
:1027140000000000000000000000000000000000B5
:1027240000000000000000000000000000000000A5
:102734000000000000000000000000000000000095
:102744000000000000000000000000000000000085
:102754000000000000000000000000000000000075
:102764000000000000000000000000000000000065
:102774000000000000000000000000000000000055
:102784000000000000000000000000000000000045
:102794000000000000000000000000000000000035
:1027A4000000000000000000000000000000000025
:1027B4000000000000002C98FBB82FEF2AB9F2B8F3
:1027C400F8B8FBB840EF552758B95BB95A95E1F70B
:1027D40052B1539552B94A95B1F7FAB8FBB82C9A4D
:1027E40008952C98FBB82FEF2AB953E0F2B8F8B843
:1027F4005BB95CE04FEFF2B848B95BB950E34FEE18
:1028040042B9F8B85BB95FEF42B94FEF48B95BB969
:10281400FAB8FBB82C9A08952C98FBB82FEF2AB974
:10282400F2B8F8B8FBB840EF552758B95A95E9F70C
:1028340052B1539552B94A95B9F7FAB8FBB82C9AE4
:102844000895D42E48E0D49ED02CE52E5AE0E59E7F
:10285400E02C089548E0D40E49F44AE0E40E40EF39
:10286400E41621F446EEE42E48EFD42E089548E011
:10287400D41A48EFD41639F44AE0E41A47EEE416C1
:1028840010F0EE24DD2408955E2D552311F05A50E6
:10289400E52E08955E2D563E11F0565FE52E0895FF
:1028A400FAE0E4E150524AE0549FE00DF11D3AE0B1
:1028B400E2B8D8B82C98FBB82FEF2AB90590D8B84D
:1028C40048E0552707FC582F5BB9000C4A9521F0C6
:1028D40018B0139418B8F5CF3A9521F012B01394A8
:1028E40012B8ECCFFAB8FBB82C9A089555274AE0F1
:1028F4003327D2E0C0E0222742B938B900000000F3
:102904000000000009B009923395B9F74395239567
:102914002A3091F7D2E0C0E0222752B938B9AFEF9C
:10292400AAB909900BB82C98000000000000000020
:102934002C9AFAB8339591F7539523952A3069F771
:10294400403FB9F63FEF3AB9FBB82C9856EE52B96E
:10295400442748B900004395E1F75395503FB9F730
:102964002C9A08955AE5FDE0EAEC52B94DE248B9D3
:10297400AFEFAAB905900BB82C9800002C9AFAB8BE
:102984004395433DA1F75395523879F70895772736
:0829940000007517E9F7089532
:00000001FF
